{
  "contractName": "Election",
  "abi": [
    {
      "constant": true,
      "inputs": [
        {
          "name": "",
          "type": "uint256"
        }
      ],
      "name": "candidates",
      "outputs": [
        {
          "name": "id",
          "type": "uint256"
        },
        {
          "name": "name",
          "type": "string"
        },
        {
          "name": "votes",
          "type": "uint256"
        }
      ],
      "payable": false,
      "stateMutability": "view",
      "type": "function"
    },
    {
      "constant": true,
      "inputs": [],
      "name": "candidates_length",
      "outputs": [
        {
          "name": "",
          "type": "uint256"
        }
      ],
      "payable": false,
      "stateMutability": "view",
      "type": "function"
    },
    {
      "inputs": [],
      "payable": false,
      "stateMutability": "nonpayable",
      "type": "constructor"
    }
  ],
  "bytecode": "0x608060405234801561001057600080fd5b50600060018190555033600260006101000a81548173ffffffffffffffffffffffffffffffffffffffff021916908373ffffffffffffffffffffffffffffffffffffffff16021790555061009e6040518060400160405280600b81526020017f43616e64696461746520310000000000000000000000000000000000000000008152506100e760201b60201c565b6100e26040518060400160405280600b81526020017f43616e64696461746520320000000000000000000000000000000000000000008152506100e760201b60201c565b610207565b6001600081548092919060010191905055506040518060600160405280600154815260200182815260200160008152506000806001548152602001908152602001600020600082015181600001556020820151816001019080519060200190610151929190610162565b506040820151816002015590505050565b828054600181600116156101000203166002900490600052602060002090601f016020900481019282601f106101a357805160ff19168380011785556101d1565b828001600101855582156101d1579182015b828111156101d05782518255916020019190600101906101b5565b5b5090506101de91906101e2565b5090565b61020491905b808211156102005760008160009055506001016101e8565b5090565b90565b610202806102166000396000f3fe608060405234801561001057600080fd5b50600436106100365760003560e01c80633477ee2e1461003b578063efb8376c146100f0575b600080fd5b6100676004803603602081101561005157600080fd5b810190808035906020019092919050505061010e565b6040518084815260200180602001838152602001828103825284818151815260200191508051906020019080838360005b838110156100b3578082015181840152602081019050610098565b50505050905090810190601f1680156100e05780820380516001836020036101000a031916815260200191505b5094505050505060405180910390f35b6100f86101d0565b6040518082815260200191505060405180910390f35b6000602052806000526040600020600091509050806000015490806001018054600181600116156101000203166002900480601f0160208091040260200160405190810160405280929190818152602001828054600181600116156101000203166002900480156101c05780601f10610195576101008083540402835291602001916101c0565b820191906000526020600020905b8154815290600101906020018083116101a357829003601f168201915b5050505050908060020154905083565b6001548156fea165627a7a723058209cf55f94756a3f276df9980226acd1ceefe8063bf2b1575b3a8c1d74c3ba9d330029",
  "source": "pragma solidity ^0.5.1;\n\ncontract Election {\n\t// Modelling a candidate \n\tstruct Candidate {\n\t\tuint id;\n\t\tstring name;\n\t\tuint votes;\n\t}\n\n\n\t// List of candidates\n\tmapping(uint => Candidate) public candidates;\n\n\t// Storing the length of the candidate's list\n\tuint public candidates_length;\n\n\t// Address of the voter\n\taddress voter;\n\n\tconstructor() public {\n\t\tcandidates_length = 0;\n\t\tvoter = msg.sender;\n\t\taddCandidate(\"Candidate 1\");\n\t\taddCandidate(\"Candidate 2\");\n\t}\n\n\tfunction addCandidate(string memory _name) private {\n\t\tcandidates_length ++;\n\t\tcandidates[candidates_length] = Candidate(candidates_length, _name, 0);\n\t}\n}",
  "sourcePath": "/Users/ppvalluri09/Desktop/ppvalluri/Programs/2019/Projects/Codefundo++2k19/testapp1/contracts/Election.sol",
  "compiler": {
    "name": "solc",
    "version": "0.5.8+commit.23d335f2.Emscripten.clang"
  },
  "schemaVersion": "3.0.11",
  "updatedAt": "2019-08-13T18:15:09.632Z",
  "devdoc": {
    "methods": {}
  },
  "userdoc": {
    "methods": {}
  }
}